{
  "address": "0x6962b2990a3FD1CE5ed0750D644fbDA4203d3e01",
  "abi": [
    {
      "anonymous": false,
      "inputs": [
        {
          "indexed": true,
          "internalType": "address",
          "name": "owner",
          "type": "address"
        },
        {
          "indexed": true,
          "internalType": "address",
          "name": "friend",
          "type": "address"
        },
        {
          "indexed": false,
          "internalType": "bool",
          "name": "allowed",
          "type": "bool"
        }
      ],
      "name": "ConsentUpdated",
      "type": "event"
    },
    {
      "anonymous": false,
      "inputs": [
        {
          "indexed": true,
          "internalType": "address",
          "name": "from",
          "type": "address"
        },
        {
          "indexed": true,
          "internalType": "address",
          "name": "to",
          "type": "address"
        },
        {
          "indexed": false,
          "internalType": "uint32",
          "name": "publicScore",
          "type": "uint32"
        }
      ],
      "name": "Rated",
      "type": "event"
    },
    {
      "anonymous": false,
      "inputs": [
        {
          "indexed": true,
          "internalType": "address",
          "name": "from",
          "type": "address"
        },
        {
          "indexed": true,
          "internalType": "address",
          "name": "to",
          "type": "address"
        },
        {
          "indexed": false,
          "internalType": "uint32",
          "name": "publicScore",
          "type": "uint32"
        },
        {
          "indexed": false,
          "internalType": "string",
          "name": "cid",
          "type": "string"
        }
      ],
      "name": "RatedWithCid",
      "type": "event"
    },
    {
      "inputs": [
        {
          "internalType": "address",
          "name": "owner",
          "type": "address"
        },
        {
          "internalType": "address",
          "name": "friend",
          "type": "address"
        }
      ],
      "name": "getDecryptConsent",
      "outputs": [
        {
          "internalType": "bool",
          "name": "",
          "type": "bool"
        }
      ],
      "stateMutability": "view",
      "type": "function"
    },
    {
      "inputs": [
        {
          "internalType": "address",
          "name": "owner",
          "type": "address"
        },
        {
          "internalType": "address",
          "name": "friend",
          "type": "address"
        }
      ],
      "name": "getPairLastCid",
      "outputs": [
        {
          "internalType": "string",
          "name": "",
          "type": "string"
        }
      ],
      "stateMutability": "view",
      "type": "function"
    },
    {
      "inputs": [
        {
          "internalType": "address",
          "name": "owner",
          "type": "address"
        },
        {
          "internalType": "address",
          "name": "friend",
          "type": "address"
        }
      ],
      "name": "getPairPublicStats",
      "outputs": [
        {
          "internalType": "uint32",
          "name": "sum",
          "type": "uint32"
        },
        {
          "internalType": "uint32",
          "name": "count",
          "type": "uint32"
        }
      ],
      "stateMutability": "view",
      "type": "function"
    },
    {
      "inputs": [
        {
          "internalType": "address",
          "name": "owner",
          "type": "address"
        },
        {
          "internalType": "address",
          "name": "friend",
          "type": "address"
        }
      ],
      "name": "getPairStats",
      "outputs": [
        {
          "internalType": "euint32",
          "name": "sum",
          "type": "bytes32"
        },
        {
          "internalType": "euint32",
          "name": "count",
          "type": "bytes32"
        }
      ],
      "stateMutability": "view",
      "type": "function"
    },
    {
      "inputs": [],
      "name": "protocolId",
      "outputs": [
        {
          "internalType": "uint256",
          "name": "",
          "type": "uint256"
        }
      ],
      "stateMutability": "pure",
      "type": "function"
    },
    {
      "inputs": [
        {
          "internalType": "address",
          "name": "friend",
          "type": "address"
        },
        {
          "internalType": "externalEuint32",
          "name": "encryptedScore",
          "type": "bytes32"
        },
        {
          "internalType": "bytes",
          "name": "inputProof",
          "type": "bytes"
        }
      ],
      "name": "rate",
      "outputs": [],
      "stateMutability": "nonpayable",
      "type": "function"
    },
    {
      "inputs": [
        {
          "internalType": "address",
          "name": "friend",
          "type": "address"
        },
        {
          "internalType": "externalEuint32",
          "name": "encryptedScore",
          "type": "bytes32"
        },
        {
          "internalType": "bytes",
          "name": "inputProof",
          "type": "bytes"
        },
        {
          "internalType": "string",
          "name": "cid",
          "type": "string"
        },
        {
          "internalType": "uint32",
          "name": "publicScore",
          "type": "uint32"
        }
      ],
      "name": "rateWithCid",
      "outputs": [],
      "stateMutability": "nonpayable",
      "type": "function"
    },
    {
      "inputs": [
        {
          "internalType": "address",
          "name": "friend",
          "type": "address"
        },
        {
          "internalType": "bool",
          "name": "allowed",
          "type": "bool"
        }
      ],
      "name": "setDecryptConsent",
      "outputs": [],
      "stateMutability": "nonpayable",
      "type": "function"
    }
  ],
  "transactionHash": "0xe0f5043a48871aea3d036cb13450ff387f0a0933211cbeba7c54906cedf83189",
  "args": [],
  "numDeployments": 1,
  "solcInputHash": "df353ccf495008da4f1ff7ba83c463c7",
  "bytecode": "0x608060405234801561000f575f5ffd5b5061018a6100ae604080516080810182525f808252602082018190529181018290526060810191909152506040805160808101825273687820221192c5b662b25367f70076a37bc79b6c815273848b0066793bcc60346da1f49049357399b8d595602082015273a02cda4ca3a71d7c46997716f4283aa851c2881291810191909152731364cbbf2cdf5032c47d8226a6f6fbd2afcdacac606082015290565b80517f9e7b61f58c47dc699ac88507c4f5bb9f121c03808c5676a8078fe583e464970080546001600160a01b03199081166001600160a01b039384161790915560208301517f9e7b61f58c47dc699ac88507c4f5bb9f121c03808c5676a8078fe583e46497018054831691841691909117905560408301517f9e7b61f58c47dc699ac88507c4f5bb9f121c03808c5676a8078fe583e46497028054831691841691909117905560608301517f9e7b61f58c47dc699ac88507c4f5bb9f121c03808c5676a8078fe583e46497038054909216921691909117905550565b610e6b806101975f395ff3fe608060405234801561000f575f5ffd5b5060043610610085575f3560e01c8063da1f12ab11610058578063da1f12ab14610129578063e4f2230614610139578063e814125614610159578063efd6d075146101c1575f5ffd5b80630b2ada15146100895780632f8aab8a146100d957806395ae315d14610101578063a647faf314610116575b5f5ffd5b6100c4610097366004610a3c565b6001600160a01b039182165f90815260036020908152604080832093909416825291909152205460ff1690565b60405190151581526020015b60405180910390f35b6100ec6100e7366004610a3c565b6101d4565b604080519283526020830191909152016100d0565b61011461010f366004610a6d565b610206565b005b610114610124366004610ae4565b6102c1565b60405161271181526020016100d0565b61014c610147366004610a3c565b6103d9565b6040516100d09190610bb6565b6101a4610167366004610a3c565b6001600160a01b039182165f90815260016020908152604080832093909416825291909152205463ffffffff808216926401000000009092041690565b6040805163ffffffff9384168152929091166020830152016100d0565b6101146101cf366004610bc8565b610490565b6001600160a01b038083165f9081526020818152604080832093851683529290522080546001909101545b9250929050565b335f9081526003602090815260408083206001600160a01b03861684529091529020805460ff1916821580159190911790915561027b57335f908152602081815260408083206001600160a01b03861684529091529020805461026990846104d6565b506102788160010154846104d6565b50505b60405181151581526001600160a01b0383169033907f0749293cdd24194bfc5a2b093e1784cdba8b1f511563750caa49bb0e4581f4209060200160405180910390a35050565b610301878787878080601f0160208091040260200160405190810160405280939291908181526020018383808284375f920191909152506104e892505050565b335f9081526002602090815260408083206001600160a01b038b168452909152902061032e838583610cb6565b50335f8181526001602081815260408084206001600160a01b038d16808652925292839020805464010000000063ffffffff8083168901811663ffffffff19841681178390048216909601160267ffffffffffffffff199091169093179290921790915590519091907fb269e0aa265608bb389822c92b7ca47e41f2120bf1d12fdf2e51b1440680e4d7906103c890859088908890610d70565b60405180910390a350505050505050565b6001600160a01b038083165f90815260026020908152604080832093851683529290522080546060919061040c90610c32565b80601f016020809104026020016040519081016040528092919081815260200182805461043890610c32565b80156104835780601f1061045a57610100808354040283529160200191610483565b820191905f5260205f20905b81548152906001019060200180831161046657829003601f168201915b5050505050905092915050565b6104d0848484848080601f0160208091040260200160405190810160405280939291908181526020018383808284375f920191909152506104e892505050565b50505050565b5f6104e18383610672565b5090919050565b6001600160a01b0383166105435760405162461bcd60e51b815260206004820152600e60248201527f496e76616c696420667269656e6400000000000000000000000000000000000060448201526064015b60405180910390fd5b336001600160a01b0384160361059b5760405162461bcd60e51b815260206004820152601760248201527f53656c6620726174696e67206e6f7420616c6c6f776564000000000000000000604482015260640161053a565b5f6105a683836106fb565b335f908152602081815260408083206001600160a01b038916845290915290208054919250906105d6908361070f565b81556001808201546105f0916105eb9061073d565b61070f565b6001820155805461060090610755565b5061060e8160010154610755565b50805461061b90336104d6565b5061062a8160010154336104d6565b506040515f81526001600160a01b0386169033907fc1d70a2ca6ed1aa533080b25cc63be4b4fa9f405bbc83b74a214cacd95c7324b9060200160405180910390a35050505050565b5f7f9e7b61f58c47dc699ac88507c4f5bb9f121c03808c5676a8078fe583e46497008054604051635ca4b5b160e11b8152600481018690526001600160a01b03858116602483015292935091169063b9496b62906044015f604051808303815f87803b1580156106e0575f5ffd5b505af11580156106f2573d5f5f3e3d5ffd5b50505050505050565b5f61070883836004610764565b9392505050565b5f826107215761071e5f61073d565b92505b816107325761072f5f61073d565b91505b61070883835f610884565b5f61074f8263ffffffff166004610964565b92915050565b5f6107608230610672565b5090565b7f9e7b61f58c47dc699ac88507c4f5bb9f121c03808c5676a8078fe583e46497015460405163196d0b9b60e01b81525f917f9e7b61f58c47dc699ac88507c4f5bb9f121c03808c5676a8078fe583e4649700916001600160a01b039091169063196d0b9b906107dd908890339089908990600401610dcb565b6020604051808303815f875af11580156107f9573d5f5f3e3d5ffd5b505050506040513d601f19601f8201168201806040525081019061081d9190610e0a565b8154604051630f8e573b60e21b8152600481018390523360248201529193506001600160a01b031690633e395cec906044015f604051808303815f87803b158015610866575f5ffd5b505af1158015610878573d5f5f3e3d5ffd5b50505050509392505050565b5f5f82156108975750600160f81b61089a565b505f5b5f7f9e7b61f58c47dc699ac88507c4f5bb9f121c03808c5676a8078fe583e4649700600181015460405163022f65e760e31b815260048101899052602481018890527fff00000000000000000000000000000000000000000000000000000000000000851660448201529192506001600160a01b03169063117b2f38906064016020604051808303815f875af1158015610936573d5f5f3e3d5ffd5b505050506040513d601f19601f8201168201806040525081019061095a9190610e0a565b9695505050505050565b7f9e7b61f58c47dc699ac88507c4f5bb9f121c03808c5676a8078fe583e464970154604051639cd07acb60e01b81525f917f9e7b61f58c47dc699ac88507c4f5bb9f121c03808c5676a8078fe583e4649700916001600160a01b0390911690639cd07acb906109d99087908790600401610e21565b6020604051808303815f875af11580156109f5573d5f5f3e3d5ffd5b505050506040513d601f19601f82011682018060405250810190610a199190610e0a565b949350505050565b80356001600160a01b0381168114610a37575f5ffd5b919050565b5f5f60408385031215610a4d575f5ffd5b610a5683610a21565b9150610a6460208401610a21565b90509250929050565b5f5f60408385031215610a7e575f5ffd5b610a8783610a21565b915060208301358015158114610a9b575f5ffd5b809150509250929050565b5f5f83601f840112610ab6575f5ffd5b50813567ffffffffffffffff811115610acd575f5ffd5b6020830191508360208285010111156101ff575f5ffd5b5f5f5f5f5f5f5f60a0888a031215610afa575f5ffd5b610b0388610a21565b965060208801359550604088013567ffffffffffffffff811115610b25575f5ffd5b610b318a828b01610aa6565b909650945050606088013567ffffffffffffffff811115610b50575f5ffd5b610b5c8a828b01610aa6565b909450925050608088013563ffffffff81168114610b78575f5ffd5b8091505092959891949750929550565b5f81518084528060208401602086015e5f602082860101526020601f19601f83011685010191505092915050565b602081525f6107086020830184610b88565b5f5f5f5f60608587031215610bdb575f5ffd5b610be485610a21565b935060208501359250604085013567ffffffffffffffff811115610c06575f5ffd5b610c1287828801610aa6565b95989497509550505050565b634e487b7160e01b5f52604160045260245ffd5b600181811c90821680610c4657607f821691505b602082108103610c6457634e487b7160e01b5f52602260045260245ffd5b50919050565b601f821115610cb157805f5260205f20601f840160051c81016020851015610c8f5750805b601f840160051c820191505b81811015610cae575f8155600101610c9b565b50505b505050565b67ffffffffffffffff831115610cce57610cce610c1e565b610ce283610cdc8354610c32565b83610c6a565b5f601f841160018114610d13575f8515610cfc5750838201355b5f19600387901b1c1916600186901b178355610cae565b5f83815260208120601f198716915b82811015610d425786850135825560209485019460019092019101610d22565b5086821015610d5e575f1960f88860031b161c19848701351681555b505060018560011b0183555050505050565b63ffffffff8416815260406020820152816040820152818360608301375f818301606090810191909152601f909201601f1916010192915050565b60548110610dc757634e487b7160e01b5f52602160045260245ffd5b9052565b8481526001600160a01b0384166020820152608060408201525f610df26080830185610b88565b9050610e016060830184610dab565b95945050505050565b5f60208284031215610e1a575f5ffd5b5051919050565b828152604081016107086020830184610dab56fea2646970667358221220df793bd3b9f3d5b52e21f795572aa3e24676f0e555bd61e06b855d4465a27aac64736f6c634300081b0033",
  "devdoc": {
    "kind": "dev",
    "methods": {},
    "title": "ChainBond  Encrypted relationship scoring with FHEVM",
    "version": 1
  },
  "userdoc": {
    "kind": "user",
    "methods": {
      "getDecryptConsent(address,address)": {
        "notice": "Returns if a friend is allowed to decrypt the owner's pair stats via front-end decryption."
      },
      "getPairLastCid(address,address)": {
        "notice": "Last optional message/cid recorded for the pair."
      },
      "getPairPublicStats(address,address)": {
        "notice": "Returns public clear aggregates for a pair (if used by UI)."
      },
      "getPairStats(address,address)": {
        "notice": "Returns encrypted aggregates for a given pair (owner -> friend)."
      },
      "rate(address,bytes32,bytes)": {
        "notice": "Rate a friend with an encrypted score (0..100). Updates encrypted sum/count and grants decrypt rights to both parties."
      },
      "rateWithCid(address,bytes32,bytes,string,uint32)": {
        "notice": "Rate with an IPFS CID and a clear public score for optional public stats."
      },
      "setDecryptConsent(address,bool)": {
        "notice": "Owner sets whether `friend` can decrypt their pair stats using Relayer userDecrypt on returned handles."
      }
    },
    "notice": "Implements Zama FHEVM patterns: external encrypted inputs, FHE.fromExternal, on-chain homomorphic ops, handle sharing via FHE.allow.",
    "version": 1
  },
  "storageLayout": {
    "storage": [
      {
        "astId": 39055,
        "contract": "contracts/ChainBond.sol:ChainBond",
        "label": "_pairStats",
        "offset": 0,
        "slot": "0",
        "type": "t_mapping(t_address,t_mapping(t_address,t_struct(EncryptedStats)39043_storage))"
      },
      {
        "astId": 39062,
        "contract": "contracts/ChainBond.sol:ChainBond",
        "label": "_pairPublic",
        "offset": 0,
        "slot": "1",
        "type": "t_mapping(t_address,t_mapping(t_address,t_struct(PublicStats)39048_storage))"
      },
      {
        "astId": 39068,
        "contract": "contracts/ChainBond.sol:ChainBond",
        "label": "_pairLastCid",
        "offset": 0,
        "slot": "2",
        "type": "t_mapping(t_address,t_mapping(t_address,t_string_storage))"
      },
      {
        "astId": 39074,
        "contract": "contracts/ChainBond.sol:ChainBond",
        "label": "_decryptConsent",
        "offset": 0,
        "slot": "3",
        "type": "t_mapping(t_address,t_mapping(t_address,t_bool))"
      }
    ],
    "types": {
      "t_address": {
        "encoding": "inplace",
        "label": "address",
        "numberOfBytes": "20"
      },
      "t_bool": {
        "encoding": "inplace",
        "label": "bool",
        "numberOfBytes": "1"
      },
      "t_mapping(t_address,t_bool)": {
        "encoding": "mapping",
        "key": "t_address",
        "label": "mapping(address => bool)",
        "numberOfBytes": "32",
        "value": "t_bool"
      },
      "t_mapping(t_address,t_mapping(t_address,t_bool))": {
        "encoding": "mapping",
        "key": "t_address",
        "label": "mapping(address => mapping(address => bool))",
        "numberOfBytes": "32",
        "value": "t_mapping(t_address,t_bool)"
      },
      "t_mapping(t_address,t_mapping(t_address,t_string_storage))": {
        "encoding": "mapping",
        "key": "t_address",
        "label": "mapping(address => mapping(address => string))",
        "numberOfBytes": "32",
        "value": "t_mapping(t_address,t_string_storage)"
      },
      "t_mapping(t_address,t_mapping(t_address,t_struct(EncryptedStats)39043_storage))": {
        "encoding": "mapping",
        "key": "t_address",
        "label": "mapping(address => mapping(address => struct ChainBond.EncryptedStats))",
        "numberOfBytes": "32",
        "value": "t_mapping(t_address,t_struct(EncryptedStats)39043_storage)"
      },
      "t_mapping(t_address,t_mapping(t_address,t_struct(PublicStats)39048_storage))": {
        "encoding": "mapping",
        "key": "t_address",
        "label": "mapping(address => mapping(address => struct ChainBond.PublicStats))",
        "numberOfBytes": "32",
        "value": "t_mapping(t_address,t_struct(PublicStats)39048_storage)"
      },
      "t_mapping(t_address,t_string_storage)": {
        "encoding": "mapping",
        "key": "t_address",
        "label": "mapping(address => string)",
        "numberOfBytes": "32",
        "value": "t_string_storage"
      },
      "t_mapping(t_address,t_struct(EncryptedStats)39043_storage)": {
        "encoding": "mapping",
        "key": "t_address",
        "label": "mapping(address => struct ChainBond.EncryptedStats)",
        "numberOfBytes": "32",
        "value": "t_struct(EncryptedStats)39043_storage"
      },
      "t_mapping(t_address,t_struct(PublicStats)39048_storage)": {
        "encoding": "mapping",
        "key": "t_address",
        "label": "mapping(address => struct ChainBond.PublicStats)",
        "numberOfBytes": "32",
        "value": "t_struct(PublicStats)39048_storage"
      },
      "t_string_storage": {
        "encoding": "bytes",
        "label": "string",
        "numberOfBytes": "32"
      },
      "t_struct(EncryptedStats)39043_storage": {
        "encoding": "inplace",
        "label": "struct ChainBond.EncryptedStats",
        "members": [
          {
            "astId": 39039,
            "contract": "contracts/ChainBond.sol:ChainBond",
            "label": "sum",
            "offset": 0,
            "slot": "0",
            "type": "t_userDefinedValueType(euint32)39452"
          },
          {
            "astId": 39042,
            "contract": "contracts/ChainBond.sol:ChainBond",
            "label": "count",
            "offset": 0,
            "slot": "1",
            "type": "t_userDefinedValueType(euint32)39452"
          }
        ],
        "numberOfBytes": "64"
      },
      "t_struct(PublicStats)39048_storage": {
        "encoding": "inplace",
        "label": "struct ChainBond.PublicStats",
        "members": [
          {
            "astId": 39045,
            "contract": "contracts/ChainBond.sol:ChainBond",
            "label": "sum",
            "offset": 0,
            "slot": "0",
            "type": "t_uint32"
          },
          {
            "astId": 39047,
            "contract": "contracts/ChainBond.sol:ChainBond",
            "label": "count",
            "offset": 4,
            "slot": "0",
            "type": "t_uint32"
          }
        ],
        "numberOfBytes": "32"
      },
      "t_uint32": {
        "encoding": "inplace",
        "label": "uint32",
        "numberOfBytes": "4"
      },
      "t_userDefinedValueType(euint32)39452": {
        "encoding": "inplace",
        "label": "euint32",
        "numberOfBytes": "32"
      }
    }
  }
}